:0C053B000000EF1F70011E144E70F5222E
:1004B800C2B27FD07E0712053BD2B27F047E001203
:0904C800053BA2B29201A201B3AE
:0104D1002208
:10000300751620E4F51AF519F518F5171204B892C8
:1000130000200003A2002230B2FD7F087E001205FB
:100023003BAF161516EF605430B2FDE4F58BD28E5C
:1000330020B2FDC28EE58BC3941E5017AF1AAE19C2
:10004300AD18AC1778011202B08F1A8E198D188C67
:100053001780CEAF1AAE19AD18AC1778011202B0E3
:100063008F1A8E198D188C17E51A4401F51AE519A4
:10007300F519E518F518E517F51780A5AF1AAE19A8
:10008300AD18AC17781812029DEF120260AF1AAECA
:1000930019AD18AC17780812029DAB13AA14A91551
:0500A300EF120260D322
:0100A8002235
:0B05530053890F438910C2ABD2BB22BA
:10013B0012049A1205537513007514007515087B7C
:10014B00007A007909120003E50875F00A8424B0DF
:10015B00F50BE434A3F50AE50875F00A84E5F02401
:10016B00B0F50DE434A3F50C750EA1750FE67B000D
:10017B007A00790A7515037D017F03120400E509E6
:10018B0075F00A8424B0F50BE434A3F50AE5097580
:10019B00F00A84E5F024B0F50DE434A3F50C750EEC
:1001AB00A3750FA57B007A00790A7515037D027F75
:0601BB000312040080FEA7
:1003360020003C1C7C1EFFFFFFFFFE3FF98F798EDD
:10034600718671F671F6780E380E3E3C1FFC1FFC66
:100356001C1C0000010041042008139007C00FE098
:10036600DFF61FF00FE007C01390200841040100DC
:1003760000000000078003C001E001F000F800F86B
:1003860000F800F800F801F003F007E00FC01F00C6
:100396000000A1A0A1A0A1A0A1A0A1A0A1A0A1A090
:0203A600A1A014
:10051A00C290D291D295E5805480FFC29570F5C2FF
:01052A00953B
:01052B0022AD
:0904D200FF1204DBE51B4480FF6E
:1004DB00AE0712051AC290C291D2958E80C2952298
:0605040014F9120247FF8A
:10050A00AE0712051AD290C291D2958E80C2952258
:10049A007F301204DB7F0C1204DB7F011204DB7B4A
:0E04AA00FF7A037936751501E4FDFF02047830
:100478008B128A13891412044DAB120514E514AAC1
:1004880013700205131205041515E515D3940050D1
:02049800E82258
:0A0400008F108D118B128A138914DE
:10040A00AF151515EFD394004038AD11AF10120493
:10041A004D0510E510D394074005E4F5100511AB1E
:10042A0012AA13A914120272FDACF0ECFF12050A0B
:10043A00AF0512050A74022514F514E43513F513F1
:02044A0080BE72
:01044C00228D
:02044D00AE07F8
:10044F00E4FFED146010146013146016240370168B
:10045F00EE2480FF8010EE2490FF800AEE2488FFA8
:09046F008004EE2498FF0204DB76
:05055E007F0F0204DB29
:050563007F0C0204DB27
:1004EB007F301204DB7F011204DB7BFF7A0379364A
:0904FB00751501E4FDFF0204780F
:0601C1008B218A22892334
:1001C7007F341204DB7F341204DBE4FCEC4480FF51
:1001D7001204DB7F801204DBE4FDAB210523E5235A
:1001E700AA2270020522120504AB210523E523AAE2
:1001F70022700205221205040DBD08DE0CBC20CCBE
:10020700E4FCEC4480FF1204DB7F881204DBE4FD8E
:10021700AB210523E523AA2270020522120504ABB0
:10022700210523E523AA22700205221205040DBD2C
:1002370008DE0CBC20CC7F361204DB7F300204DBE7
:0800A9008F1B8B1C8A1D891EB0
:1000B1007F341204DB7F341204DBEDC39402503031
:1000C100E4FCEDC454F044804C1204D2AB1C051E78
:1000D100E51EAA1D7002051D120504AB1C051EE5D7
:1000E1001EAA1D7002051D1205040CBC10D4803718
:1000F100E4FCEDC454F044804CFF1204DBE51B44E6
:1001010088FF1204DBAB1C051EE51EAA1D7002054B
:100111001D120504AB1C051EE51EAA1D7002051D5E
:100121001205040CBC10CBEDC454F044801204D26F
:0A0131007F361204DB7F300204DB8E
:1003A8007F341204DB7F341204DBE4FCEC4480FF6E
:1003B8001204DB7F801204DBE4FDE4FF12050AE48B
:1003C800FF12050A0DBD08F20CBC20E0E4FCEC4469
:1003D80080FF1204DB7F881204DBE4FDE4FF1205D2
:1003E8000AE4FF12050A0DBD08F20CBC20E07F36B6
:0803F8001204DB7F300204DB7C
:0202C300AB0787
:1002C5007F341204DB7F341204DBEDC39402502427
:1002D500E4FCEDC454F044804CFF1204DBEB448095
:1002E500FF1204DBE4FF12050AE4FF12050A0CBC49
:1002F50010E08022E4FCEDC454F044804CFF12046D
:10030500DBEB4488FF1204DBE4FF12050AE4FF126D
:10031500050A0CBC10E0EDC454F04480FF1204DB68
:10032500EB4480FF1204DB7F361204DB7F300204CE
:01033500DBEC
:0F052C007BFF7A037998C374089FF515020400CA
:03000000020547AF
:0C054700787FE4F6D8FD75812302013BAB
:10024700BB010689828A83E0225002E722BBFE02B5
:09025700E32289828A83E49322E8
:10026000BB010689828A83F0225002F722BBFE017D
:02027000F32277
:10027200BB010A89828A83E0F5F0A3E02250068757
:10028200F009E71922BBFE07E3F5F009E319228919
:0B029200828A83E493F5F0740193224C
:10029D00E8600FECC313FCED13FDEE13FEEF13FF3F
:0302AD00D8F12263
:1002B000E8600FEFC333FFEE33FEED33FDEC33FCAC
:0302C000D8F12250
:00000001FF
