:03062100011F00B6
:0C0600000000EF1F70011E144E70F52268
:10057D00C2B27FD07E07120600D2B27F047E001277
:09058D000600A2B29201A201B322
:010596002242
:10000300751620E4F51AF519F518F517C2AF1205A0
:100013007D9200200003A20022E4F51F20B20AAF64
:100023001F051FEFC3941440F3AF1F051FEFC394C5
:1000330014400280287F087E00120600AF161516B2
:10004300EF6070E4F51F20B20AAF1F051FEFC394E2
:100053001440F3AF1F051FEFC394144005D2B2D26F
:10006300AF22E4F58BD28E20B2FDC28EE58BC39412
:100073001E5017AF1AAE19AD18AC177801120375DD
:100083008F1A8E198D188C1780B2AF1AAE19AD184E
:10009300AC1778011203758F1A8E198D188C17E51A
:1000A3001A4401F51AE519F519E518F518E517F5D8
:1000B300178089AF1AAE19AD18AC177818120362FE
:1000C300EF120325AF1AAE19AD18AC177808120357
:0E00D30062AB13AA14A915EF120325D2AFD306
:0100E10022FC
:0B060C0053890F438910C2ABD2BB2200
:1002000012055F12060C7513007514007515087B36
:10021000007A007909120003E50875F00A8424B019
:10022000F50BE434A3F50AE50875F00A84E5F0243B
:10023000B0F50DE434A3F50C750EA1750FE67B0047
:100240007A00790A7515037D017F031204C5E5095B
:1002500075F00A8424B0F50BE434A3F50AE50975BA
:10026000F00A84E5F024B0F50DE434A3F50C750E26
:10027000A3750FA57B007A00790A7515037D027FAF
:06028000031204C580FE1C
:1003FB0020003C1C7C1EFFFFFFFFFE3FF98F798E18
:10040B00718671F671F6780E380E3E3C1FFC1FFCA0
:10041B001C1C0000010041042008139007C00FE0D2
:10042B00DFF61FF00FE007C0139020084104010016
:10043B0000000000078003C001E001F000F800F8A5
:10044B0000F800F800F801F003F007E00FC01F0000
:10045B000000A1A0A1A0A1A0A1A0A1A0A1A0A1A0CA
:02046B00A1A04E
:1005DF00C290D291D295E5805480FFC29570F5C23A
:0105EF009576
:0105F00022E8
:09059700FF1205A0E51B4480FFE2
:1005A000AE071205DFC290C291D2958E80C295220D
:0605C90014F912030CFFFF
:1005CF00AE071205DFD290C291D2958E80C29522CE
:10055F007F301205A07F0C1205A07F011205A07B32
:0E056F00FF7A0379FB751501E4FDFF02053DDF
:10053D008B128A138914120512AB120514E514AA35
:10054D0013700205131205C91515E515D394005046
:02055D00E82292
:0A04C5008F108D118B128A13891419
:1004CF00AF151515EFD394004038AD11AF101205CD
:1004DF00120510E510D394074005E4F5100511AB94
:1004EF0012AA13A914120337FDACF0ECFF1205CFBB
:1004FF00AF051205CF74022514F514E43513F51367
:02050F0080BEAC
:0105110022C7
:02051200AE0732
:10051400E4FFED14601014601314601624037016C5
:10052400EE2480FF8010EE2490FF800AEE2488FFE2
:090534008004EE2498FF0205A0EA
:050617007F0F0205A0A9
:05061C007F0C0205A0A7
:1005B0007F301205A07F011205A07BFF7A0379FB33
:0905C000751501E4FDFF02053D83
:060286008B218A2289236E
:10028C007F341205A07F341205A0E4FCEC4480FFFF
:10029C001205A07F801205A0E4FDAB210523E52308
:1002AC00AA22700205221205C9AB210523E523AA57
:1002BC0022700205221205C90DBD08DE0CBC20CC33
:1002CC00E4FCEC4480FF1205A07F881205A0E4FD3D
:1002DC00AB210523E523AA22700205221205C9AB26
:1002EC00210523E523AA22700205221205C90DBDA2
:1002FC0008DE0CBC20CC7F361205A07F300205A096
:0800E2008F1B8B1C8A1D891E77
:1000EA007F341205A07F341205A0EDC3940250306C
:1000FA00E4FCEDC454F044804C120597AB1C051E79
:10010A00E51EAA1D7002051D1205C9AB1C051EE5D8
:10011A001EAA1D7002051D1205C90CBC10D4803719
:10012A00E4FCEDC454F044804CFF1205A0E51B44E6
:10013A0088FF1205A0AB1C051EE51EAA1D7002054C
:10014A001D1205C9AB1C051EE51EAA1D7002051D60
:10015A001205C90CBC10CBEDC454F04480120597AB
:0A016A007F361205A07F300205A0C9
:10046D007F341205A07F341205A0E4FCEC4480FF1C
:10047D001205A07F801205A0E4FDE4FF1205CFE474
:10048D00FF1205CF0DBD08F20CBC20E0E4FCEC44DE
:10049D0080FF1205A07F881205A0E4FDE4FF120580
:1004AD00CFE4FF1205CF0DBD08F20CBC20E07F3666
:0804BD001205A07F300205A02A
:02038800AB07C1
:10038A007F341205A07F341205A0EDC394025024D5
:10039A00E4FCEDC454F044804CFF1205A0EB448009
:1003AA00FF1205A0E4FF1205CFE4FF1205CF0CBC33
:1003BA0010E08022E4FCEDC454F044804CFF1205A6
:1003CA00A0EB4488FF1205A0E4FF1205CFE4FF1258
:1003DA0005CF0CBC10E0EDC454F04480FF1205A018
:1003EA00EB4480FF1205A07F361205A07F3002057C
:0103FA00A062
:0F05F1007BFF7A04795DC374089FF5150204C57A
:0300000002017486
:0C017400787FE4F6D8FD7581230201BB02
:10030C00BB010689828A83E0225002E722BBFE02EF
:09031C00E32289828A83E4932222
:10032500BB010689828A83F0225002F722BBFE01B7
:02033500F322B1
:10033700BB010A89828A83E0F5F0A3E02250068791
:10034700F009E71922BBFE07E3F5F009E319228953
:0B035700828A83E493F5F07401932286
:10036200E8600FECC313FCED13FDEE13FEEF13FF79
:03037200D8F1229D
:10037500E8600FEFC333FFEE33FEED33FDEC33FCE6
:03038500D8F1228A
:10018000020200E493A3F8E493A34003F68001F293
:1001900008DFF48029E493A3F85407240CC8C33380
:1001A000C4540F4420C8834004F456800146F6DF4F
:1001B000E4800B0102040810204080900621E47EB8
:1001C000019360BCA3FF543F30E509541FFEE49344
:1001D000A360010ECF54C025E060A840B8E493A30B
:1001E000FAE493A3F8E493A3C8C582C8CAC583CA36
:1001F000F0A3C8C582C8CAC583CADFE9DEE780BEEE
:0106240000D5
:00000001FF
