:0C053F000000EF1F70011E144E70F5222A
:1004BC00C2B27FD07E0712053FD2B27F047E0012FB
:0904CC00053FA2B29201A201B3A6
:0104D5002204
:10000300751620E4F51AF519F518F5171204BC92C4
:1000130000200003A2002230B2FD7F087E001205FB
:100023003FAF161516EF605830B2FDC2AFE4F58B43
:10003300D28E20B2FDC28ED2AFE58BC3941E501771
:10004300AF1AAE19AD18AC1778011202B48F1A8E1D
:10005300198D188C1780CAAF1AAE19AD18AC177862
:10006300011202B48F1A8E198D188C17E51A4401E8
:10007300F51AE519F519E518F518E517F51780A12F
:10008300AF1AAE19AD18AC1778181202A1EF12020D
:1000930064AF1AAE19AD18AC1778081202A1AB13EE
:0900A300AA14A915EF120264D39E
:0100AC002231
:0B05570053890F438910C2ABD2BB22B6
:10013F0012049E1205577513007514007515087B70
:10014F00007A007909120003E50875F00A8424B0DB
:10015F00F50BE434A3F50AE50875F00A84E5F024FD
:10016F00B0F50DE434A3F50C750EA1750FE67B0009
:10017F007A00790A7515037D017F03120404E509DE
:10018F0075F00A8424B0F50BE434A3F50AE509757C
:10019F00F00A84E5F024B0F50DE434A3F50C750EE8
:1001AF00A3750FA57B007A00790A7515037D027F71
:0601BF000312040480FE9F
:10033A0020003C1C7C1EFFFFFFFFFE3FF98F798ED9
:10034A00718671F671F6780E380E3E3C1FFC1FFC62
:10035A001C1C0000010041042008139007C00FE094
:10036A00DFF61FF00FE007C01390200841040100D8
:10037A0000000000078003C001E001F000F800F867
:10038A0000F800F800F801F003F007E00FC01F00C2
:10039A000000A1A0A1A0A1A0A1A0A1A0A1A0A1A08C
:0203AA00A1A010
:10051E00C290D291D295E5805480FFC29570F5C2FB
:01052E009537
:01052F0022A9
:0904D600FF1204DFE51B4480FF66
:1004DF00AE0712051EC290C291D2958E80C2952290
:0605080014F912024BFF82
:10050E00AE0712051ED290C291D2958E80C2952250
:10049E007F301204DF7F0C1204DF7F011204DF7B3A
:0E04AE00FF7A03793A751501E4FDFF02047C24
:10047C008B128A138914120451AB120514E514AAB9
:10048C0013700205131205081515E515D3940050C9
:02049C00E82254
:0A0404008F108D118B128A138914DA
:10040E00AF151515EFD394004038AD11AF1012048F
:10041E00510510E510D394074005E4F5100511AB16
:10042E0012AA13A914120276FDACF0ECFF12050EFF
:10043E00AF0512050E74022514F514E43513F513E9
:02044E0080BE6E
:010450002289
:02045100AE07F4
:10045300E4FFED1460101460131460162403701687
:10046300EE2480FF8010EE2490FF800AEE2488FFA4
:090473008004EE2498FF0204DF6E
:050562007F0F0204DF21
:050567007F0C0204DF1F
:1004EF007F301204DF7F011204DF7BFF7A03793A3A
:0904FF00751501E4FDFF02047C07
:0601C5008B218A22892330
:1001CB007F341204DF7F341204DFE4FCEC4480FF45
:1001DB001204DF7F801204DFE4FDAB210523E5234E
:1001EB00AA2270020522120508AB210523E523AADA
:1001FB0022700205221205080DBD08DE0CBC20CCB6
:10020B00E4FCEC4480FF1204DF7F881204DFE4FD82
:10021B00AB210523E523AA2270020522120508ABA8
:10022B00210523E523AA22700205221205080DBD24
:10023B0008DE0CBC20CC7F361204DF7F300204DFDB
:0800AD008F1B8B1C8A1D891EAC
:1000B5007F341204DF7F341204DFEDC39402503025
:1000C500E4FCEDC454F044804C1204D6AB1C051E70
:1000D500E51EAA1D7002051D120508AB1C051EE5CF
:1000E5001EAA1D7002051D1205080CBC10D4803710
:1000F500E4FCEDC454F044804CFF1204DFE51B44DE
:1001050088FF1204DFAB1C051EE51EAA1D70020543
:100115001D120508AB1C051EE51EAA1D7002051D56
:100125001205080CBC10CBEDC454F044801204D663
:0A0135007F361204DF7F300204DF82
:1003AC007F341204DF7F341204DFE4FCEC4480FF62
:1003BC001204DF7F801204DFE4FDE4FF12050EE47B
:1003CC00FF12050E0DBD08F20CBC20E0E4FCEC4461
:1003DC0080FF1204DF7F881204DFE4FDE4FF1205C6
:1003EC000EE4FF12050E0DBD08F20CBC20E07F36AA
:0803FC001204DF7F300204DF70
:0202C700AB0783
:1002C9007F341204DF7F341204DFEDC3940250241B
:1002D900E4FCEDC454F044804CFF1204DFEB44808D
:1002E900FF1204DFE4FF12050EE4FF12050E0CBC39
:1002F90010E08022E4FCEDC454F044804CFF120469
:10030900DFEB4488FF1204DFE4FF12050EE4FF125D
:10031900050E0CBC10E0EDC454F04480FF1204DF5C
:10032900EB4480FF1204DF7F361204DF7F300204C2
:01033900DFE4
:0F0530007BFF7A03799CC374089FF515020404BE
:0300000002054BAB
:0C054B00787FE4F6D8FD75812302013FA3
:10024B00BB010689828A83E0225002E722BBFE02B1
:09025B00E32289828A83E49322E4
:10026400BB010689828A83F0225002F722BBFE0179
:02027400F32273
:10027600BB010A89828A83E0F5F0A3E02250068753
:10028600F009E71922BBFE07E3F5F009E319228915
:0B029600828A83E493F5F07401932248
:1002A100E8600FECC313FCED13FDEE13FEEF13FF3B
:0302B100D8F1225F
:1002B400E8600FEFC333FFEE33FEED33FDEC33FCA8
:0302C400D8F1224C
:00000001FF
