:0305BA00011F001E
:0C0599000000EF1F70011E144E70F522D0
:10051600C2B27FD07E07120599D2B27F047E001246
:090526000599A2B29201A201B3F1
:01052F0022A9
:060003008B108A11891226
:10000900C2AF1205169200200003A20022E4F51FD8
:1000190020B20AAF1F051FEFC3941440F3E51FC3B5
:100029009414400280227F087E00120599E4FDE4C1
:10003900FCE4F51F20B20AAF1F051FEFC39414405B
:10004900F3E51FC394144005D2B2D2AF227F037ED9
:1000590000120599C2B374162DF8C000E625E0D048
:1000690000F630B20F74162DF8E64401F67F037ED0
:1000790000120599D2B30CBC08B70DBD05B1AB1080
:10008900AA11A912E516120421AB13AA14A915E5A0
:0700990018120421D2AFD3BD
:0100A000223D
:0B05A50053890F438910C2ABD2BB2268
:1001BF001204F81205A57513007514007515087B48
:1001CF00007A007909120003E50875F00A8424B05B
:1001DF00F50BE434A3F50AE50875F00A84E5F0247D
:1001EF00B0F50DE434A3F50C750EA1750FE67B0089
:1001FF007A00790A7515037D017F0312045EE50904
:10020F0075F00A8424B0F50BE434A3F50AE50975FB
:10021F00F00A84E5F024B0F50DE434A3F50C750E67
:10022F00A3750FA57B007A00790A7515037D027FF0
:06023F000312045E80FEC4
:10033E0020003C1C7C1EFFFFFFFFFE3FF98F798ED5
:10034E00718671F671F6780E380E3E3C1FFC1FFC5E
:10035E001C1C0000010041042008139007C00FE090
:10036E00DFF61FF00FE007C01390200841040100D4
:10037E0000000000078003C001E001F000F800F863
:10038E0000F800F800F801F003F007E00FC01F00BE
:10039E000000A1A0A1A0A1A0A1A0A1A0A1A0A1A088
:0203AE00A1A00C
:10057800C290D291D295E5805480FFC29570F5C2A1
:0105880095DD
:01058900224F
:09053000FF120539E51B4480FFB0
:10053900AE07120578C290C291D2958E80C29522DB
:0605620014F9120408FF69
:10056800AE07120578D290C291D2958E80C295229C
:1004F8007F301205397F0C1205397F011205397BCF
:0E050800FF7A03793E751501E4FDFF0204D66B
:1004D6008B128A1389141204ABAB120514E514AA05
:1004E60013700205131205621515E515D394005015
:0204F600E822FA
:0A045E008F108D118B128A13891480
:10046800AF151515EFD394004038AD11AF10120435
:10047800AB0510E510D394074005E4F5100511AB62
:1004880012AA13A914120433FDACF0ECFF1205688C
:10049800AF0512056874022514F514E43513F51335
:0204A80080BE14
:0104AA00222F
:0204AB00AE079A
:1004AD00E4FFED146010146013146016240370162D
:1004BD00EE2480FF8010EE2490FF800AEE2488FF4A
:0904CD008004EE2498FF020539B9
:0505B0007F0F02053978
:0505B5007F0C02053976
:100549007F301205397F011205397BFF7A03793E25
:09055900751501E4FDFF0204D652
:060245008B218A228923AF
:10024B007F341205397F34120539E4FCEC4480FF0E
:10025B001205397F80120539E4FDAB210523E52317
:10026B00AA2270020522120562AB210523E523AAFF
:10027B0022700205221205620DBD08DE0CBC20CCDB
:10028B00E4FCEC4480FF1205397F88120539E4FD4C
:10029B00AB210523E523AA2270020522120562ABCE
:1002AB00210523E523AA22700205221205620DBD4A
:1002BB0008DE0CBC20CC7F361205397F30020539A5
:0800A1008F1B8B1C8A1D891EB8
:1000A9007F341205397F34120539EDC3940250307B
:1000B900E4FCEDC454F044804C120530AB1C051E21
:1000C900E51EAA1D7002051D120562AB1C051EE581
:1000D9001EAA1D7002051D1205620CBC10D48037C2
:1000E900E4FCEDC454F044804CFF120539E51B448F
:1000F90088FF120539AB1C051EE51EAA1D700205F5
:100109001D120562AB1C051EE51EAA1D7002051D08
:100119001205620CBC10CBEDC454F04480120530BA
:0A0129007F361205397F30020539D8
:1003B0007F341205397F34120539E4FCEC4480FFA8
:1003C0001205397F80120539E4FDE4FF120568E467
:1003D000FF1205680DBD08F20CBC20E0E4FCEC4403
:1003E00080FF1205397F88120539E4FDE4FF12050C
:1003F00068E4FF1205680DBD08F20CBC20E07F36F2
:080400001205397F30020539B5
:0202CB00AB077F
:1002CD007F341205397F34120539EDC39402502461
:1002DD00E4FCEDC454F044804CFF120539EB44802E
:1002ED00FF120539E4FF120568E4FF1205680CBC26
:1002FD0010E08022E4FCEDC454F044804CFF120564
:10030D0039EB4488FF120539E4FF120568E4FF124A
:10031D0005680CBC10E0EDC454F04480FF120539A3
:10032D00EB4480FF1205397F361205397F30020507
:01033D003986
:0F058A007BFF7A0379A0C374089FF51502045E06
:03000000020133C7
:0C013300787FE4F6D8FD75812302017A84
:10040800BB010689828A83E0225002E722BBFE02F2
:09041800E32289828A83E4932225
:10042100BB010689828A83F0225002F722BBFE01BA
:02043100F322B4
:10043300BB010A89828A83E0F5F0A3E02250068794
:10044300F009E71922BBFE07E3F5F009E319228956
:0B045300828A83E493F5F07401932289
:10013F000201BFE493A3F8E493A34003F68001F216
:10014F0008DFF48029E493A3F85407240CC8C333C1
:10015F00C4540F4420C8834004F456800146F6DF90
:10016F00E4800B01020408102040809005BAE47E61
:10017F00019360BCA3FF543F30E509541FFEE49385
:10018F00A360010ECF54C025E060A840B8E493A34C
:10019F00FAE493A3F8E493A3C8C582C8CAC583CA77
:1001AF00F0A3C8C582C8CAC583CADFE9DEE780BE2F
:0105BD00003D
:00000001FF
